S018000030305F4C45445F4F6E5F536F757263652E737265638C
S1130000702400209D020000990200009902000063
S113001000000000000000000000000000000000DC
S11300200000000000000000000000009902000031
S11300300000000000000000990200009902000086
S11300409902000099020000990200009902000040
S11300509902000099020000990200009902000030
S11300609902000099020000990200009902000020
S11300709902000099020000990200009902000010
S113008099020000990200000D04000051040000D0
S113009099020000990200009902000099020000F0
S11300A099020000990200009902000099020000E0
S11300B00000000010B5064C2378002B07D1054B37
S11300C0002B02D0044800E000BF0123237010BDC0
S11300D02C040020000000003C060000084B10B572
S11300E0002B03D00749084800E000BF0748036815
S11300F0002B00D110BD064B002BFBD09847F9E72D
S113010000000000300400203C0600003C06000013
S11301100000000070B5184B9847184B80208002EF
S11301201860196880225203114319601449086049
S1130130086802430A605C215A5C012002435A5455
S11301403E22995C0F25A943072421439954123276
S1130150995C0143995438215A5CAA4322435A5466
S113016017315A5C02435A541839585C0F22024022
S1130170702002435A5470BD8501000000440041C0
S113018014440041354A116AE0239B010B43136276
S1130190334B1A6A33490A401A621A6A02210A4323
S11301A01A62314A0131FF31916030495160304A5D
S11301B09A829A8A02210A439A821A00D3689B0778
S11301C0FCD5294B0222FF329A602A4A5A601A004F
S11301D05378DB09FCD1284A53681E218B431C3910
S11301E00B4353608222D2011F4B5A801C4AD368AE
S11301F0DB06FCD502221A4B9A841A00D368DB066C
S1130200FCD51E4A164BDA621A00D368DB06FCD50D
S11302101B4B1A6812498B6A920E920219480340CA
S113022013438B620A00D368DB06FCD50C4A938C1B
S113023015490B439384D3681B06FCD5D3685B062E
S1130240F9D5124A084B5A601A005378DB09FCD1DD
S1130250054B0F4A5A800F4A5A80704700040040E9
S113026000080040FFFCFFFF000C004002060900EC
S11302700C07000001050B0000400041B905FF7D9B
S113028024608000FF03FFFF0608000000070B0046
S11302901B4000001C410000FEE70000F8B52A4A9C
S11302A02A4B9A4211D01A00294B9A420DD2294A5C
S11302B003339B1A9B0801339B00002223482249E5
S11302C08C58845004329A42FAD1234A234B9A42DE
S11302D00AD2D34321495B1803218B4304339B186F
S11302E0002102C29342FCD11D4AFF211D4B8B43C6
S11302F09360FD3990235B001B4AD1501B4AD3788D
S11303000325AB4302242343D370D3780C27BB4388
S113031008263343D370164B987B30229043202217
S113032010439873997BB943314399739A7BAA43D9
S113033022439A730F4A536880210B4353600E4B38
S113034098470E4B9847FEE73C060000000000204B
S11303502C040020040000202C0400207004002041
S113036000ED00E00000000000700041005000417A
S11303700048004100400041750400008103000072
S113038070B51C4B98471C4B8022D2021A60802205
S113039012031A60194B1A880224A2431A801A887D
S11303A00C218A4308210A431A805A790425AA4356
S11303B05A71597901221143597111491961597BB3
S11303C01143597319880220014319800D4B198870
S11303D0A14319805979A943597159791143597124
S11303E009491982597B0A435A731A8802431A80AD
S11303F0FEE7C0461501000000E100E000300042C5
S1130400FF7C0000002C00425FEAFFFF0C4A1388C7
S113041001339BB21380C8229200934207D0094B48
S1130420094A1A829A7B01210A439A7370478022EF
S11304305203064BDA610022014B1A80EFE7C046F3
S113044048040020002C00425FEAFFFF0044004102
S113045080229202044BDA61044B054A1A619A7BAA
S113046001210A439A73704700440041003000425E
S1130470FF7C000070B50D4E0D4D0024AD1BAD107A
S113048005D0A300F35801349847A542F9D100F0F0
S1130490C3F8084E084D0024AD1BAD1005D0A300D1
S11304A0F35801349847A542F9D170BD24060000E1
S11304B024060000240600002C060000034B10B59F
S11304C0002B02D0024800F005F810BD0000000027
S11304D0E504000010B5010000230022002000F014
S11304E01FF810BD70B5094B094CE41AA41009D0CB
S11304F0084AA518AD00ED182B68013C9847043D47
S1130500002CF9D100F092F870BDC0463806000006
S11305103C060000FFFFFF3F7047C0467047C046DF
S1130520F0B54E464546DE465746E0B5364D83B0F7
S11305300600286898460F009146FFF7EDFF334BFD
S11305401C68A4235B00E058002852D043681F2B8A
S113055013DC5A1C0192002E28D1019A02339B000D
S113056042601F502868FFF7D9FF002003B03CBC4D
S113057090469946A246AB46F0BD254B002B3DD094
S1130580C820400000E000BF002837D0A422002388
S11305905200A15843600160A0504032835004329D
S11305A08350013301930023002ED6D09A00924643
S11305B082444A46882154466250C42252009146DD
S11305C081444A468739994012688B460A439446C7
S11305D04A4661461160842241465200A150022ECF
S11305E0BBD102005C468D32FF3211680C431460AB
S11305F0B3E720004D30FF30E050A7E72868FFF74D
S11306008DFF01204042B1E72804002014060000B9
S11306100000000000000020F8B5C046F8BC08BC8B
S11306209E467047BD040000DD000000F8B5C046DA
S10F0630F8BC08BC9E467047B5000000F2
S113063C00000000EC02002054030020BC03002046
S113064C000000000000000000000000000000009A
S113065C000000000000000000000000000000008A
S113066C000000000000000000000000000000007A
S113067C000000000000000000000000000000006A
S113068C000000000000000000000000000000005A
S113069C000000000000000000000000000000004A
S11306AC000000000000000000000000000000003A
S11306BC000000000000000000000000000000002A
S11306CC000000000000000000000000000000001A
S11306DC0000000000000000010000000000000009
S11306EC0E33CDAB34126DE6ECDE05000B000000CE
S11306FC00000000000000000000000000000000EA
S113070C00000000000000000000000000000000D9
S113071C00000000000000000000000000000000C9
S113072C00000000000000000000000000000000B9
S10F0A5C00000000000000004C0400201A
S9030000FC
